:020000040800F2
:10000000F8040020D5000008FD1700085F1500085F
:1000100000000000000000000000000000000000E0
:10002000000000000000000000000000B1190008FE
:10003000000000000000000045180008B319000887
:10004000E7000008E7000008E7000008E7000008F4
:10005000E7000008E7000008E7000008E7000008E4
:10006000E7000008E7000008E7000008E7000008D4
:10007000E7000008E700000800000000E7000008B3
:1000800000000000E7000008000000000000000081
:10009000E700000800000000E7000008E700000893
:1000A000E7000008E7000008E7000008E700000894
:1000B000E7000008E7000008E7000008E700000884
:1000C0000348854600F0A0F800480047F91F0008E3
:1000D000F80400200448804704480047FEE7FEE794
:1000E000FEE7FEE7FEE7FEE7311A0008C100000860
:1000F00030B50B46014600202022012409E00D46C0
:10010000D5409D4205D31D469540491B2546954047
:1001100040191546521E002DF1DC30BDF0B51FB45C
:100120000646002082B005464024019100901BE065
:10013000019922460F46304600F055F8049A059B77
:10014000801A994110D310461946224600F03BF818
:10015000361A8F410197224601200021009F00F0AE
:1001600032F838184D4100902046641E0028DFDC2C
:10017000019B00982946324607B0F0BDD2B201E09B
:100180000270401C491EFBD270470022F6E710B5F2
:1001900013460A4604461946FFF7F0FF204610BDF5
:1001A000421E5378521C002BFBD10B781370491C54
:1001B000521C002BF9D17047421C0178401C0029C9
:1001C000FBD1801A704710B5202A04DB0146203A83
:1001D0009140002010BD914020239C1A0346E3402B
:1001E0001943904010BD10B5202A04DB0846203A80
:1001F000D040002110BD0B46D340D0402024A21A8D
:1002000091400843194610BD064C0125064E05E0F5
:10021000E36807CC2B430C3C98471034B442F7D327
:10022000FFF752FFC4200008E420000800B589B0A1
:100230000020079006906A460290107008215170C5
:100240009070D0700390049005901071517190716E
:10025000D07101F09BF9002844D001F0E5F90028A5
:1002600040D006AA2321202001F020FA07AA272146
:10027000242001F01BFA02AA0321002001F016FA43
:100280006A460721042001F011FA03AA0B21082075
:1002900001F00CFA04AA1321102001F007FA05AAB4
:1002A0001721142001F002FA01AA1B21182001F0E5
:1002B000FDF90421602001F0DFF90121702001F037
:1002C000DBF900212A2001F0D7F9E521292001F0EE
:1002D000D3F98321282001F0CFF901F0B9F90028E2
:1002E00000D0012009B000BD70B586B004460025DD
:1002F00001F036F969460870009E3006810F40D043
:10030000800F012809D00021032808D000221143C2
:1003100007D00D2201A9902008E00121F4E7012275
:10032000F5E7022804D10D2201A9942001F05EF91D
:10033000F006800F022827D0012020706946087936
:100340004979C0004909081860606846007A20723F
:100350006846407A60726846807AA0726846C07AC1
:10036000E0726846007B20736846407B6073684695
:10037000807BA0736846C07BE0736846007C207475
:100380000125284606B070BD02202070684682799B
:10039000C17903794079DB00850740091818AD0F52
:1003A000800040190002801800024018CCE770B5A8
:1003B000044600F0CDF80546601C00D0641C00F037
:1003C000C7F8401BA042FAD370BD0000F8B5002367
:1003D0000124A2E027469F403A4070D04D68022D8C
:1003E00001D0122D14D1DD08AD002D1800952D6A15
:1003F0005E07AC46F50E0F26AE46AE406546B543E9
:10040000AC460E697546AE4065462E43009D2E6291
:100410004D68012D05D0022D03D0112D01D0122DD4
:1004200016D185680326AC465D00AE46AE406546F3
:10043000B543AC46CE687546AE4065462E438660F1
:1004400046680D79BE43ED06ED0F9D40354345608E
:1004500006685F000325BD40AE46AE430D79B44645
:10046000AE07B60FBE4065462E430660C6687546A9
:10047000AE438D68BD403543C5604D68ED004BD53A
:10048000294D6E6B26436E639E08284DB600751984
:10049000AC46AD689E07360F0F27B740BD43052712
:1004A0003F07B84201D1002715E0214FB84201D1E2
:1004B000012710E01F4FB84202D102270BE02BE0CA
:1004C0001D4FB84201D1032705E01C4FB84201D1AE
:1004D000052700E00627B7402F436546AF60184D5B
:1004E0002E684F689643FF0300D516432E606E6852
:1004F0004F689643BF0300D516436E60AE684F68E1
:100500009643FF0200D51643AE60EE684F689643EF
:10051000BF0200D51643EE605B1C0A681546DD403D
:1005200000D057E7F8BD0000001002400000014075
:100530000004005000080050000C0050001C005047
:1005400000040140002A01D0816170478162704738
:100550000148006870470000000000200248016860
:10056000491C0160704700000000002010B50848D9
:1005700000240168402211430160204600F00AF87F
:10058000002801D0012401E000F01CF8204610BD35
:100590000020024070B5054609487D210024C900AD
:1005A0000068FFF7A5FD00F0F7FE002801D0012448
:1005B00004E000222946501E00F010F8204670BDCD
:1005C000040000200448416B012211434163816B08
:1005D00002041143816370470010024010B501F01E
:1005E0000FF910BDF8B504460068614D810601D4CD
:1005F00000057DD55E4E0027403EB06BC00004D4A0
:10060000B06B31040843B06301275A480168C9053B
:1006100011D40168821511430160FFF799FF009022
:1006200005E0FFF795FF0099401A642844D8514827
:100630000068C005F5D531680320000562680140F7
:100640001040884205D10323A0681B05184088424A
:1006500008D09003800F032804D13068800301D5AF
:100660000120F8BD286903210904084029D00A4067
:10067000824202D02278920606D4A2680A408242C0
:100680001FD0208800051CD528692A6988430121CC
:10069000C9040A432A612A698A432A612861C0057C
:1006A0000FD5FFF755FF009008E0FFF751FF0099C5
:1006B000411A3148814201D90320F8BD28698005DB
:1006C000F3D561688803800F032805D132680005DF
:1006D000824301400A4332602869032261681204A0
:1006E000114008432861002F06D0B16B012000E0C3
:1006F00002E000078143B1632078C00705D0E868B5
:10070000E168800880000843E8602078800705D50C
:10071000E8680C21884321690843E8602078400795
:1007200006D5E86803218902884361690843E860C7
:100730002078000706D5E868032109038843A169EA
:100740000843E8602078400606D5E868012189065C
:100750008843216A0843E8602078000606D5E868E7
:10076000032189048843E1690843E8600020F8BD5B
:10077000401002400070004088130000F8B50E469B
:1007800005007DD053480068C007C00FB0420AD2B0
:100790005048016849084900314301600068C007BA
:1007A000C00FB04271D128784B4C800705D5E06866
:1007B000F0218843A9680843E0602878C00752D038
:1007C0006868022817D0032818D02168012818D09B
:1007D0008905002959DAE168890889000143E16047
:1007E000FFF7B6FE69680746022912D003291CD01C
:1007F000012926D033E021688903EAE721688901CD
:10080000E7E74907E5E7FFF7A3FEC11B334881424D
:1008100023D8E0680007800F0228F4D123E0FFF717
:1008200097FEC11B2D48814217D8E0680007800F52
:100830000328F4D117E0FFF78BFEC11B2748814244
:100840000BD8E0680007800F0128F4D10BE0FFF718
:100850007FFEC11B2148814201D90320F8BDE06819
:100860000007800FF3D11B480168C907C90FB142C7
:100870000DD901684908490031430160006800E072
:1008800003E0C007C00FB04201D00120F8BD2878B6
:10089000400706D5E068072109028843E968084354
:1008A000E0602878000707D5E0680721C90288437F
:1008B0002969C9000843E06000F036F8E168084A99
:1008C0000906090F515CC840064908600020FFF77F
:1008D00061FEF8BD002002400010024088130000B5
:1008E000A020000804000020044805490068C968E9
:1008F000044A4905490F515CC84070470400002074
:1009000000100240B9200008044805490068C96881
:10091000044A8904490F515CC84070470400002014
:1009200000100240B920000810B5184AD1680C2008
:10093000084004280BD0082810D00C2810D050688C
:100940000004410F0120C003491C884010BD1068FD
:10095000C00601D50E4810BD0E4810BD0E4810BD92
:1009600088020E4B000F185C0902D368890F491CDE
:10097000DB0301D5084A05E01268D20601D5044A16
:1009800000E0044A5043FFF7B3FB10BD00100240E3
:1009900000093D000024F40000127A00B020000895
:1009A000FEB505007ED0FE4CE7680C20E6680740E7
:1009B0000120000406402878C00747D0082F05D042
:1009C0000C2F0AD101200004864206D12068800342
:1009D0003CD568680028E5D038E00120696800044B
:1009E000814203D121680143216011E005230122E6
:1009F0001B0492049942216802D111432160F1E75E
:100A0000814321602168014000912068904320606B
:100A1000686800280DD0FFF79BFD009005E0FFF708
:100A200097FD0099401A64287AD820688003F6D58B
:100A30000CE0FFF78DFD009005E0FFF789FD0099C0
:100A4000401A6428F0D820688003F6D428788007FC
:100A500055D50923E868042F0DD00C2F01D1002EA5
:100A600009D000283BD02168994301432160FFF75A
:100A70006FFD064627E02168490701D5002891D07F
:100A800061681F22120291432A69120211436160B8
:100A90002168994301432160FFF746FFE168090699
:100AA0000A0F00E0BBE1BF49895CC840BE4908604D
:100AB0000020FFF76FFD002872D120E0FFF748FD0E
:100AC000801B0228B0D820684007F7D560681F2136
:100AD0000902884329690902084360600FE0206821
:100AE000400840002060FFF733FD064604E0FFF7B2
:100AF0002FFD801B022897D820684007F7D428785C
:100B0000C0065FD5002F0CD0E869002849D02068C6
:100B1000FF21013108432060FFF71AFD06462DE052
:100B2000E4E02068800502D5E8690028A7D0606865
:100B3000072149038843696A084360606068298C1B
:100B40000002000A090608436060686A410B012040
:100B5000C003491C8840E16809060A0F9149895C75
:100B6000C840914908600020FFF714FD002817D104
:100B700028E0FFF7EDFC801B0228A3D82068800541
:100B8000F7D56068072149038843696A08436060B4
:100B90006068298C0002000A09060843606011E0C1
:100BA00023E12168FF20013081432160FFF7D0FC61
:100BB000064604E0FFF7CCFC801B02289BD8206887
:100BC0008005F7D42878794E000724D56869002875
:100BD000306910D0012108433061FFF7B9FC009063
:100BE00005E0FFF7B5FC0099401A02287ED830696D
:100BF0008007F6D50FE0400840003061FFF7A8FC01
:100C0000009005E0FFF7A4FC0099401A02286DD877
:100C100030698007F6D42878400764D50020029018
:100C2000A06BC00006D4A06B012109070843A06394
:100C3000012002905E480168C90511D4016882153F
:100C400011430160FFF784FC009005E0FFF780FC92
:100C50000099401A642849D855480068C005F5D560
:100C6000FF20AA680130824203D13169014331611A
:100C700011E001218902002A07D005231B029A42B4
:100C800003D132690A433261EFE73269824332614C
:100C9000306988433061A86800280ED0FFF758FCFF
:100CA000009006E0FFF754FC0099411A4148814248
:100CB0001CD830698005F5D50DE0FFF749FC0090A0
:100CC00006E0FFF745FC0099411A3A4881420DD8E9
:100CD00030698005F5D40298002804D0A16B01206A
:100CE00000078143A1632878800600E07CE02ED5D0
:100CF0003148A9694314002916D0A26801210A438A
:100D0000A260626B0A436263016A19430162FFF7E2
:100D10001FFC064604E0FFF71BFC801B022863D87B
:100D2000A0688007F7D512E0A16849084900A160D2
:100D3000016A99430162FFF70BFC064604E0FFF7E6
:100D400007FC801B02284FD8A0688007F7D4A86A48
:100D5000002866D00C2F4DD00126360602282068C8
:100D600005D0B0432060FFF7F3FB05463EE0B043FB
:100D70002060FFF7EDFB074604E0FFF7E9FBC01B2F
:100D8000022831D820688001F7D4296BE86AE2682C
:100D90000843696BFD231B049A43114308430DE08C
:100DA00000100240A0200008040000204010024073
:100DB000007000408813000000000140E0602068DF
:100DC00030432060FFF7C4FB054604E0FFF7C0FB9B
:100DD000401B022808D820688001F7D521E0FFF7E2
:100DE000B7FB401B022801D90320FEBD206880010B
:100DF000F5D416E00128F8D0E06801210904EA6A78
:100E0000014091420BD10F2189042A6B014091428C
:100E100005D1032189050840696B884201D0012072
:100E2000FEBD0020FEBD4030407C704770B5040020
:100E300007D0002625464035A662687C002802D0EF
:100E400005E0012070BD2E74204600F02FF802202E
:100E5000687420680168402291430160A16860685D
:100E600022690843E168114308436169012208438C
:100E7000A169520211400843E1690843216A08430D
:100E8000A16A084321680860A0690421000C084099
:100E9000616A0843216848602068C16992009143F3
:100EA000C161666501206874002070BD10B586B010
:100EB000044614216846FFF768F910492068884203
:100EC00019D10F48416B821411434163C16A012259
:100ED0001143C162C06A002110400590E0200090DB
:100EE000022001900320039002910491052069469D
:100EF0000007FFF76BFA06B010BD0000003001409C
:100F000000100240FFB504464068FF212546002638
:100F10000531403581B01746884202D1A0680028CB
:100F20000CD0287C012815D001202874FFF710FB75
:100F30000090687C01280FD002267EE004206874AF
:100F400013460498029A00901146204600F02BF9AF
:100F500005B0F0BD0220FBE7029800286CD0002FFE
:100F60006AD004206874002060650299A163A78795
:100F7000E7872063A086E086206460640121A06882
:100F8000C903884205D12068016801229203914378
:100F9000016020680168490603D4016840221143BA
:100FA0000160E06800281AD037E020688168C9072E
:100FB00009D0007BA16B0870A06B401CA063E08F80
:100FC000401EE0870BE0FFF7C3FA0099411A04982E
:100FD000814202D3401C02D035E0002833D0E08F9C
:100FE0000028E2D11CE020688168C90709D0C068E8
:100FF000A16B0880A06B801CA063E08F401EE0877F
:101000000BE0FFF7A5FA0099411A0498814202D338
:10101000401C02D017E0002815D0E08F0028E2D154
:101020002046009A049900F00EFC002801D02020F0
:101030006065606D002800D00126012068740020E2
:101040002874304684E70326F7E7FFB505460446D3
:101050004035287C002781B01646012809D00120A0
:101060002874FFF775FA0090687C012804D00227E5
:1010700093E0022005B0F0BD0298002870D0002E49
:101080006ED0032068740020606502992163A686F3
:10109000E686A063A087E087606420640121A068E1
:1010A000C903884205D120680168012292031143D7
:1010B000016020680168490603D401684022114399
:1010C00001600121E068C9028842606826D10028D9
:1010D00001D0012E1ED1206B21680088C86006E077
:1010E00020688168890709D5216B0988C160206B58
:1010F000801C2063E08E401EE0860BE0FFF728FA9C
:101100000099411A0498814202D3401C02D03AE06F
:10111000002838D0E08E0028E2D127E0002801D056
:10112000012E20D1206B21680078087306E020682A
:101130008168890709D5216B09780173206B401CF0
:101140002063E08E401EE0860DE0FFF701FA0146C5
:101150000098091A0498814203D3401C03D012E07E
:101160001AE000280FD0E08E0028E0D12046009A37
:10117000049900F096FB002801D020206065A0684B
:10118000002802D005E0032707E02068C1688068D6
:101190000090606D002800D00127012068740020B5
:1011A0002874384666E7FFB5044683B001200190F5
:1011B0000020264640360090307C0C9F1D460128BA
:1011C0000FD001203074FFF7C3F90290707C616882
:1011D00001280DD0CA1FFD3A08D1A168002905D108
:1011E00002E0022007B0F0BD042801D00220C3E0D5
:1011F0000498002828D00598002825D0002D23D059
:10120000707C042801D00520707400206065059969
:10121000A163E587A58704992163E586A5862064F7
:10122000606420680168490603D4016840221143C4
:1012300001600121E068C9028842606848D1002845
:1012400004D0012D02D03CE0012095E0206B216804
:101250000088C860206B801C2063E08E401EE08602
:101260002FE020688168890710D5E18E00290DD014
:10127000019901290AD1216B0988C160206B801C6A
:101280002063E08E401EE086002001902068816887
:10129000C9070DD0E18F00290AD0C068A16B088072
:1012A000A06B801CA063E08F401EE08701200190AE
:1012B000FFF74EF901460298081AB84201D3781C8C
:1012C00059D1E08E0028CCD1E08F0028C9D146E06A
:1012D000002801D0012D3CD1206B216800780873D3
:1012E000206B401C2063E08E401EE08631E02068C9
:1012F0008168890710D5E18E00290DD00199012957
:101300000AD1216B09780173206B401C2063E08EA9
:10131000401EE0860020019020688168C9070DD03A
:10132000E18F00290AD0C068A16B0870A06B401C37
:10133000A063E08F401EE08701200190FFF708F9CD
:101340000299401AB84202D3781C02D013E0002F51
:1013500011D0E08E0028CAD1E08F0028C7D13946CD
:101360002046029A00F09DFA002807D00120009044
:101370002020606509E00320009006E0A0680028B6
:1013800003D12068C168806801900120707400203A
:101390003074009826E70000094910B5401E8842C5
:1013A00001D9012010BD074C60610321081F00F026
:1013B00027FA0020A06107202061002010BD000056
:1013C000FFFFFF0000E000E010B5040003D0606FF5
:1013D000002802D007E0012010BD00217020015537
:1013E000204600F027F8242060672068016849083B
:1013F00049000160204600F0DBFB0128ECD0606A68
:10140000002802D0204600F03DFB206841680922F8
:10141000D20291434160206881682A229143816011
:1014200020680168012211430160204600F090FB12
:1014300010BD000010B586B0044614216846FEF7C2
:10144000A4FE1149206888421BD11048816B0122FB
:10145000520411438163C16A01221143C162C06A0F
:101460006946104005900C20009002200190002059
:101470000290032003900420049005200007FEF74B
:10148000A5FF06B010BD000000440040001002405F
:10149000FFB50446406F83B017460D4620285CD147
:1014A000002D0AD0002F08D0A168C001814207D1C9
:1014B0002069002804D1E80702D0012007B0F0BD60
:1014C000204660300290007C012846D0029801211D
:1014D00001740020E06721206067FFF739F8264695
:1014E00040360190378277820120A1680003814253
:1014F00002D12069002802D02F46002511E00027E4
:101500000FE000228021204600F066FC002815D163
:10151000002F15D02168387888627F1C708A401EA1
:101520007082708A019B002806980090E9D1002201
:101530004021204600F050FC002808D00320BDE7E1
:1015400028882168C005C00D8862AD1CE6E7202010
:101550006067029900200874B0E70220AEE7FEE75A
:1015600070B5094D002240212846FEF7EBFFB02060
:1015700000F0C4F900F0B6F90446012240212846E3
:10158000FEF7E0FF204670BD0004005010B50122B8
:1015900040210748FEF7D6FF0A240648FFF743FC20
:1015A000012804D0641E2406240EF6D1002010BDAC
:1015B000000400500800002070B50B4D04460022C6
:1015C00040212846FEF7BEFF032000F097F9204691
:1015D00000F094F900F086F90446012240212846E3
:1015E000FEF7B0FF204670BD00040050F8B50C4E69
:1015F00014460D460746002240213046FEF7A2FF62
:10160000384600F07BF9294622460A230548FFF7B1
:1016100079FC012240213046FEF794FFF8BD00001E
:10162000000400500800002010B580210F2000F0B9
:1016300023F80A240E20FFF7BFFF4009042805D035
:10164000641E2406240EF5D1002010BD012010BD1B
:1016500010B500210F2000F00FF80A240E20FFF72C
:10166000ABFF400905D0641E2406240EF6D10020ED
:1016700010BD012010BD000070B50B4C0E46054694
:10168000002240212046FEF75DFF022000F036F9DF
:10169000284600F033F9304600F030F901224021AD
:1016A0002046FEF74FFF70BD00040050F8B50D4E08
:1016B00017460C460546002240213046FEF742FF01
:1016C000022000F01BF9284600F018F9601B401CAE
:1016D000C1B2384600F01CF9012240213046FEF725
:1016E00031FFF8BD00040050F0B587B01421684602
:1016F000FEF74BFD2248C26A04210A43C262C26A55
:101700000A400592C26A80210A43C262C26A0A4044
:101710000592C16A01242143C162C16A2140059139
:10172000C26A02210A43C262C06A164E084005908E
:10173000002221463046FEF705FF134F01224021CB
:101740003846FEF7FFFE6003009010480025019028
:10175000694602953046FEF739FE009402956946C7
:10176000304603950194FEF731FE4020694631C1B1
:10177000694638460394FEF729FE07B0F0BD000025
:10178000001002400008005000040050000021102A
:1017900010B50D480B490160FF2105314160002162
:1017A0008160C16001220161520282614161016276
:1017B00008224162C26181620721C162FFF736FBE4
:1017C00010BD0000003001400800002010B50A489C
:1017D00008490160E1214902416000218160C16046
:1017E00001618161C1610C22016242614162FFF7C6
:1017F000EBFD10BD00440040600000207047000079
:101800008307FF22DB0E9A408907090E99400028C2
:101810000BDA0007000F0838830808489B001818E7
:10182000C36993430B43C3617047830804489B001B
:101830001B181868904308431860704700ED00E0DB
:1018400000E400E07047F8B504464368FF26012035
:1018500005368002B3420AD1A3684501AB4201D0EC
:10186000834204D123681D684027BD431D6063681F
:101870002025B34210D1A36883420DD000920B46BD
:1018800000228021204600F04DF8002803D0606D32
:10189000284360650320F8BD00920B460022012119
:1018A000F0E738B504464068FF2305332025984209
:1018B00004D100920B460022802107E05120005DF8
:1018C00005280DD100920B4600220121204600F090
:1018D00029F8002804D0606D28436065032038BDD6
:1018E000002038BD08B50A23012269460248FFF7E7
:1018F00009FB6846007808BD0800002001B50A23EE
:10190000012269460148FFF7A0FB08BD080000203E
:101910000A4610B501460A230148FFF796FB10BDA1
:1019200008000020F8B51D4617460E46044609E09B
:10193000681C07D0FEF70CFE0699401AA8420BD28D
:10194000002D09D020688168304688432ED00020C1
:10195000B842EDD10020F8BD20684168E0229143F3
:1019600041606068C11FFD390CD10121A068C90325
:10197000884202D04911884204D12068016840227F
:10198000914301600120A16A4003814207D121688F
:101990000A6882430A6021680A6802430A600120DB
:1019A00040346074002020740320F8BD0120CFE78C
:1019B000704710B5FEF7D2FD10BD000030B59DB0E8
:1019C00038216846FEF7E1FB142117A8FEF7DDFB7E
:1019D00024210EA8FEF7D9FB144801680322D20285
:1019E0009143C214891801600120039010200490D3
:1019F00002250024800400950D900B940A950C9408
:101A00006846FEF7CDFF0F20179003201890199419
:101A10001A9401211B9417A8FEF7B0FE0EA80E958C
:101A20001294FEF7DFFD1DB030BD000000700040D5
:101A300010480168821511430160C1680E4A1140C7
:101A4000C16001680D4A1140016081684908490080
:101A5000816001680122920491430160C168FD2206
:101A600012049143C160002101610549C0038860EF
:101A700070470000001002400C40FF88F6FFF6FEA1
:101A800000ED00E010B5818CC90707D001684A68F5
:101A900001235B049A43836A1A434A60818C890755
:101AA00007D501684A6801231B049A43C36A1A4395
:101AB0004A60818C490707D501684A6801239B0465
:101AC0009A43036B1A434A60818C090707D5016862
:101AD0004A680123DB039A43436B1A434A60818CB3
:101AE000C90607D50268916801231B039943836BDC
:101AF00019439160818C890607D501688A680123A2
:101B00005B039A43C36B1A438A60818C490612D5E2
:101B100003685A6801210905046C8A4322435A600C
:101B2000026C8A4207D10268516803235B0599431E
:101B3000436C19435160818C090607D501684A68D6
:101B40000123DB04806C9A4302434A6010BD00000D
:101B5000F8B500260446C667FEF7FAFC054620687D
:101B60000068124F000709D501212B4600224905C4
:101B70002046009700F030F900280DD12068006859
:101B800040070BD501212B460022890520460097EE
:101B900000F022F9002801D00320F8BD2020606762
:101BA000A067603426740020F8BD0000FFFFFF012D
:101BB000F8B504462669A268E769324366691020D1
:101BC00000253E432368324378491E68784F3E40E3
:101BD00016431E6023685A6803263603B243E6683C
:101BE00032435A602368A2698B4201D0266A32438D
:101BF0009E680B273F02BE4316439E606D4E2368CE
:101C00006D4AB3420CD1D2689207920F06D0012AD6
:101C100038D0022A34D0032A20D11EE001201DE052
:101C2000664EB3420AD1D2680C26324026D0042A2E
:101C300028D0082A24D00C2A10D10EE08B420DD1D6
:101C4000D66803229202164018D001229202B61AD8
:101C500018D0B61A14D0964200D10820564A012650
:101C6000403A574FF6038B4236D100280CD0022859
:101C70000DD0042812D008281FD11CE00020EDE769
:101C80000220EBE70420E9E7FEF72EFE08E01068EB
:101C9000C00601D5384605E04A4803E0FEF744FE99
:101CA000002873D0626851005118814205D8110391
:101CB000814202D303E03046F4E7012566E0010EDD
:101CC00006025008002330185941FEF727FA032175
:101CD0000902411A3C4A55E0E169B14232D10300A0
:101CE00000F0C0F809070A0D06250606062B0600B7
:101CF000E3E7FEF7F9FD1CE0FEF706FE19E01068C9
:101D00006168C00602D54808304A01E0304A4808F8
:101D10008018FEF7EDF980B201462E4A1039914243
:101D2000CBD8511C01400007400F08432CE0FEF7C0
:101D3000FBFD616840004A08EAE761680122480843
:101D40001204E5E7030000F08DF809070A0D0626E6
:101D50000606062C0600B0E7FEF7C6FD1DE0FEF7FE
:101D6000D3FD1AE010686168C00602D54808C019A2
:101D700002E014484A081018FEF7BAF980B201468A
:101D8000144A1039914298D82168C8600020206612
:101D900060662846F8BDFEF7C7FD61684A088018EE
:101DA000EAE7616848088019E6E70000004800405B
:101DB000F369FFEF0038014040100240004400404A
:101DC00000093D000024F400FFFC0F0000127A001F
:101DD0000048E801EFFF0000FFB581B017460E464E
:101DE00004460A9D09E0681C07D0FEF7B1FB049980
:101DF000401AA8420CD8002D0AD02068C16930468C
:101E0000884318D00020B842EDD0002005B0F0BDC6
:101E100020680168FF22A132914301602068816837
:101E200049084900816020206067A0670020603475
:101E300020740320EAE70120E5E700000FB410B5A5
:101E400004A9074B02AA039800F028F8044602A947
:101E5000002000F0CBF8204610BC08BC04B01847A6
:101E6000ED1F000830B47446641E2578641CAB4234
:101E700000D21D46635D5B00E31830BC184702E0EA
:101E800008C8121F08C1002AFAD170477047002005
:101E900001E001C1121F002AFBD17047FFB58DB0D0
:101EA0000446002506E025280AD0109A0F9990478D
:101EB000641C6D1C20780028F5D1284611B0F0BDB7
:101EC00000270121484A009700E00743641C23785B
:101ED0000846203B98401042F7D120782E2817D191
:101EE000042007436078641C2A280CD10E98641CD7
:101EF00002C800910E900BE000990A22514330393C
:101F00004018641C00902078014630390929F3D923
:101F100020780028D1D0642808D0692806D07528F8
:101F20001ED0109A0F9990476D1C5BE00A200E9905
:101F3000019001C90E91002802DA40422D2102E0F1
:101F4000390504D52B216A461172012103E0F907F6
:101F500004D02021F7E70BAE0B910DE00021FAE74A
:101F60000A200E99019001C90E91F7E70199FEF739
:101F7000BFF83031761E31700028F7D103A8801BDE
:101F800020300190780701D5009801E001200090F1
:101F90000199884201DD401A00E0002000270090EE
:101FA00006E002A8109AC05D0F9990476D1C7F1C37
:101FB0000B988742F5DB04E0109A30200F99904788
:101FC0006D1C0099481E00900029F5DC05E0307872
:101FD000109A761C0F9990476D1C0199481E01902C
:101FE0000029F4DC641C65E7092801000A68531C19
:101FF0000B60107070470000FEF7B8FAFFF7DEFCC8
:10200000FFF772FBFFF7C4FBFFF7E0FBFEF70EF9EB
:10201000062000F027F87D25ED001148FEF764F951
:10202000002818D00E4C607A00F01CF8A07A00F05E
:1020300019F8E07A00F016F8207B00F013F8607BC6
:1020400000F010F8A07B00F00DF8E07B00F00AF83B
:10205000207C00F007F82846FEF7A9F9DDE700002C
:10206000E000002000B5A1B002460AA16846FFF7D3
:10207000E5FE09A16846FEF793F86846FEF79CF86E
:1020800082B20023DB4369460448FFF701FA21B01E
:1020900000BD0000256400000A0000006000002070
:1020A0000000000000000000010203040607080908
:1020B000030406080C101820300000000001020381
:1020C00004000000E42000080000002008000000D8
:1020D0007E1E0008EC20000808000020F00400002C
:0C20E0008E1E0008000000000000200020
:04000005080000C12E
:00000001FF
